{
	"data": {
		"bytecode": {
			"linkReferences": {},
			"object": "6080604052670de0b6b3a764000060025534801561001c57600080fd5b506106198061002c6000396000f3fe608060405234801561001057600080fd5b50600436106100625760003560e01c8063095ea7b31461006757806323b872dd1461009757806370a08231146100c757806372dd529b146100f7578063a9059cbb14610115578063dd62ed3e14610145575b600080fd5b610081600480360381019061007c91906103ec565b610175565b60405161008e9190610447565b60405180910390f35b6100b160048036038101906100ac9190610462565b61017d565b6040516100be9190610447565b60405180910390f35b6100e160048036038101906100dc91906104b5565b610186565b6040516100ee91906104f1565b60405180910390f35b6100ff6101ce565b60405161010c91906104f1565b60405180910390f35b61012f600480360381019061012a91906103ec565b6101d3565b60405161013c9190610447565b60405180910390f35b61015f600480360381019061015a919061050c565b61034b565b60405161016c91906104f1565b60405180910390f35b600092915050565b60009392505050565b60008060008373ffffffffffffffffffffffffffffffffffffffff1673ffffffffffffffffffffffffffffffffffffffff168152602001908152602001600020549050919050565b600090565b6000816000803373ffffffffffffffffffffffffffffffffffffffff1673ffffffffffffffffffffffffffffffffffffffff16815260200190815260200160002054101580156102235750600082115b1561034057816000803373ffffffffffffffffffffffffffffffffffffffff1673ffffffffffffffffffffffffffffffffffffffff1681526020019081526020016000206000828254610276919061057b565b92505081905550816000808573ffffffffffffffffffffffffffffffffffffffff1673ffffffffffffffffffffffffffffffffffffffff16815260200190815260200160002060008282546102cb91906105af565b925050819055508273ffffffffffffffffffffffffffffffffffffffff163373ffffffffffffffffffffffffffffffffffffffff167fddf252ad1be2c89b69c2b068fc378daa952ba7f163c4a11628f55a4df523b3ef8460405161032f91906104f1565b60405180910390a360019050610345565b600090505b92915050565b600092915050565b600080fd5b600073ffffffffffffffffffffffffffffffffffffffff82169050919050565b600061038382610358565b9050919050565b61039381610378565b811461039e57600080fd5b50565b6000813590506103b08161038a565b92915050565b6000819050919050565b6103c9816103b6565b81146103d457600080fd5b50565b6000813590506103e6816103c0565b92915050565b6000806040838503121561040357610402610353565b5b6000610411858286016103a1565b9250506020610422858286016103d7565b9150509250929050565b60008115159050919050565b6104418161042c565b82525050565b600060208201905061045c6000830184610438565b92915050565b60008060006060848603121561047b5761047a610353565b5b6000610489868287016103a1565b935050602061049a868287016103a1565b92505060406104ab868287016103d7565b9150509250925092565b6000602082840312156104cb576104ca610353565b5b60006104d9848285016103a1565b91505092915050565b6104eb816103b6565b82525050565b600060208201905061050660008301846104e2565b92915050565b6000806040838503121561052357610522610353565b5b6000610531858286016103a1565b9250506020610542858286016103a1565b9150509250929050565b7f4e487b7100000000000000000000000000000000000000000000000000000000600052601160045260246000fd5b6000610586826103b6565b9150610591836103b6565b92508282039050818111156105a9576105a861054c565b5b92915050565b60006105ba826103b6565b91506105c5836103b6565b92508282019050808211156105dd576105dc61054c565b5b9291505056fea2646970667358221220a0f49ee27eb66a522ae2070fbbfce01368a8b5a66c6fdec13e51f5daf93e5c9a64736f6c63430008120033",
			"opcodes": "PUSH1 0x80 PUSH1 0x40 MSTORE PUSH8 0xDE0B6B3A7640000 PUSH1 0x2 SSTORE CALLVALUE DUP1 ISZERO PUSH2 0x1C JUMPI PUSH1 0x0 DUP1 REVERT JUMPDEST POP PUSH2 0x619 DUP1 PUSH2 0x2C PUSH1 0x0 CODECOPY PUSH1 0x0 RETURN INVALID PUSH1 0x80 PUSH1 0x40 MSTORE CALLVALUE DUP1 ISZERO PUSH2 0x10 JUMPI PUSH1 0x0 DUP1 REVERT JUMPDEST POP PUSH1 0x4 CALLDATASIZE LT PUSH2 0x62 JUMPI PUSH1 0x0 CALLDATALOAD PUSH1 0xE0 SHR DUP1 PUSH4 0x95EA7B3 EQ PUSH2 0x67 JUMPI DUP1 PUSH4 0x23B872DD EQ PUSH2 0x97 JUMPI DUP1 PUSH4 0x70A08231 EQ PUSH2 0xC7 JUMPI DUP1 PUSH4 0x72DD529B EQ PUSH2 0xF7 JUMPI DUP1 PUSH4 0xA9059CBB EQ PUSH2 0x115 JUMPI DUP1 PUSH4 0xDD62ED3E EQ PUSH2 0x145 JUMPI JUMPDEST PUSH1 0x0 DUP1 REVERT JUMPDEST PUSH2 0x81 PUSH1 0x4 DUP1 CALLDATASIZE SUB DUP2 ADD SWAP1 PUSH2 0x7C SWAP2 SWAP1 PUSH2 0x3EC JUMP JUMPDEST PUSH2 0x175 JUMP JUMPDEST PUSH1 0x40 MLOAD PUSH2 0x8E SWAP2 SWAP1 PUSH2 0x447 JUMP JUMPDEST PUSH1 0x40 MLOAD DUP1 SWAP2 SUB SWAP1 RETURN JUMPDEST PUSH2 0xB1 PUSH1 0x4 DUP1 CALLDATASIZE SUB DUP2 ADD SWAP1 PUSH2 0xAC SWAP2 SWAP1 PUSH2 0x462 JUMP JUMPDEST PUSH2 0x17D JUMP JUMPDEST PUSH1 0x40 MLOAD PUSH2 0xBE SWAP2 SWAP1 PUSH2 0x447 JUMP JUMPDEST PUSH1 0x40 MLOAD DUP1 SWAP2 SUB SWAP1 RETURN JUMPDEST PUSH2 0xE1 PUSH1 0x4 DUP1 CALLDATASIZE SUB DUP2 ADD SWAP1 PUSH2 0xDC SWAP2 SWAP1 PUSH2 0x4B5 JUMP JUMPDEST PUSH2 0x186 JUMP JUMPDEST PUSH1 0x40 MLOAD PUSH2 0xEE SWAP2 SWAP1 PUSH2 0x4F1 JUMP JUMPDEST PUSH1 0x40 MLOAD DUP1 SWAP2 SUB SWAP1 RETURN JUMPDEST PUSH2 0xFF PUSH2 0x1CE JUMP JUMPDEST PUSH1 0x40 MLOAD PUSH2 0x10C SWAP2 SWAP1 PUSH2 0x4F1 JUMP JUMPDEST PUSH1 0x40 MLOAD DUP1 SWAP2 SUB SWAP1 RETURN JUMPDEST PUSH2 0x12F PUSH1 0x4 DUP1 CALLDATASIZE SUB DUP2 ADD SWAP1 PUSH2 0x12A SWAP2 SWAP1 PUSH2 0x3EC JUMP JUMPDEST PUSH2 0x1D3 JUMP JUMPDEST PUSH1 0x40 MLOAD PUSH2 0x13C SWAP2 SWAP1 PUSH2 0x447 JUMP JUMPDEST PUSH1 0x40 MLOAD DUP1 SWAP2 SUB SWAP1 RETURN JUMPDEST PUSH2 0x15F PUSH1 0x4 DUP1 CALLDATASIZE SUB DUP2 ADD SWAP1 PUSH2 0x15A SWAP2 SWAP1 PUSH2 0x50C JUMP JUMPDEST PUSH2 0x34B JUMP JUMPDEST PUSH1 0x40 MLOAD PUSH2 0x16C SWAP2 SWAP1 PUSH2 0x4F1 JUMP JUMPDEST PUSH1 0x40 MLOAD DUP1 SWAP2 SUB SWAP1 RETURN JUMPDEST PUSH1 0x0 SWAP3 SWAP2 POP POP JUMP JUMPDEST PUSH1 0x0 SWAP4 SWAP3 POP POP POP JUMP JUMPDEST PUSH1 0x0 DUP1 PUSH1 0x0 DUP4 PUSH20 0xFFFFFFFFFFFFFFFFFFFFFFFFFFFFFFFFFFFFFFFF AND PUSH20 0xFFFFFFFFFFFFFFFFFFFFFFFFFFFFFFFFFFFFFFFF AND DUP2 MSTORE PUSH1 0x20 ADD SWAP1 DUP2 MSTORE PUSH1 0x20 ADD PUSH1 0x0 KECCAK256 SLOAD SWAP1 POP SWAP2 SWAP1 POP JUMP JUMPDEST PUSH1 0x0 SWAP1 JUMP JUMPDEST PUSH1 0x0 DUP2 PUSH1 0x0 DUP1 CALLER PUSH20 0xFFFFFFFFFFFFFFFFFFFFFFFFFFFFFFFFFFFFFFFF AND PUSH20 0xFFFFFFFFFFFFFFFFFFFFFFFFFFFFFFFFFFFFFFFF AND DUP2 MSTORE PUSH1 0x20 ADD SWAP1 DUP2 MSTORE PUSH1 0x20 ADD PUSH1 0x0 KECCAK256 SLOAD LT ISZERO DUP1 ISZERO PUSH2 0x223 JUMPI POP PUSH1 0x0 DUP3 GT JUMPDEST ISZERO PUSH2 0x340 JUMPI DUP2 PUSH1 0x0 DUP1 CALLER PUSH20 0xFFFFFFFFFFFFFFFFFFFFFFFFFFFFFFFFFFFFFFFF AND PUSH20 0xFFFFFFFFFFFFFFFFFFFFFFFFFFFFFFFFFFFFFFFF AND DUP2 MSTORE PUSH1 0x20 ADD SWAP1 DUP2 MSTORE PUSH1 0x20 ADD PUSH1 0x0 KECCAK256 PUSH1 0x0 DUP3 DUP3 SLOAD PUSH2 0x276 SWAP2 SWAP1 PUSH2 0x57B JUMP JUMPDEST SWAP3 POP POP DUP2 SWAP1 SSTORE POP DUP2 PUSH1 0x0 DUP1 DUP6 PUSH20 0xFFFFFFFFFFFFFFFFFFFFFFFFFFFFFFFFFFFFFFFF AND PUSH20 0xFFFFFFFFFFFFFFFFFFFFFFFFFFFFFFFFFFFFFFFF AND DUP2 MSTORE PUSH1 0x20 ADD SWAP1 DUP2 MSTORE PUSH1 0x20 ADD PUSH1 0x0 KECCAK256 PUSH1 0x0 DUP3 DUP3 SLOAD PUSH2 0x2CB SWAP2 SWAP1 PUSH2 0x5AF JUMP JUMPDEST SWAP3 POP POP DUP2 SWAP1 SSTORE POP DUP3 PUSH20 0xFFFFFFFFFFFFFFFFFFFFFFFFFFFFFFFFFFFFFFFF AND CALLER PUSH20 0xFFFFFFFFFFFFFFFFFFFFFFFFFFFFFFFFFFFFFFFF AND PUSH32 0xDDF252AD1BE2C89B69C2B068FC378DAA952BA7F163C4A11628F55A4DF523B3EF DUP5 PUSH1 0x40 MLOAD PUSH2 0x32F SWAP2 SWAP1 PUSH2 0x4F1 JUMP JUMPDEST PUSH1 0x40 MLOAD DUP1 SWAP2 SUB SWAP1 LOG3 PUSH1 0x1 SWAP1 POP PUSH2 0x345 JUMP JUMPDEST PUSH1 0x0 SWAP1 POP JUMPDEST SWAP3 SWAP2 POP POP JUMP JUMPDEST PUSH1 0x0 SWAP3 SWAP2 POP POP JUMP JUMPDEST PUSH1 0x0 DUP1 REVERT JUMPDEST PUSH1 0x0 PUSH20 0xFFFFFFFFFFFFFFFFFFFFFFFFFFFFFFFFFFFFFFFF DUP3 AND SWAP1 POP SWAP2 SWAP1 POP JUMP JUMPDEST PUSH1 0x0 PUSH2 0x383 DUP3 PUSH2 0x358 JUMP JUMPDEST SWAP1 POP SWAP2 SWAP1 POP JUMP JUMPDEST PUSH2 0x393 DUP2 PUSH2 0x378 JUMP JUMPDEST DUP2 EQ PUSH2 0x39E JUMPI PUSH1 0x0 DUP1 REVERT JUMPDEST POP JUMP JUMPDEST PUSH1 0x0 DUP2 CALLDATALOAD SWAP1 POP PUSH2 0x3B0 DUP2 PUSH2 0x38A JUMP JUMPDEST SWAP3 SWAP2 POP POP JUMP JUMPDEST PUSH1 0x0 DUP2 SWAP1 POP SWAP2 SWAP1 POP JUMP JUMPDEST PUSH2 0x3C9 DUP2 PUSH2 0x3B6 JUMP JUMPDEST DUP2 EQ PUSH2 0x3D4 JUMPI PUSH1 0x0 DUP1 REVERT JUMPDEST POP JUMP JUMPDEST PUSH1 0x0 DUP2 CALLDATALOAD SWAP1 POP PUSH2 0x3E6 DUP2 PUSH2 0x3C0 JUMP JUMPDEST SWAP3 SWAP2 POP POP JUMP JUMPDEST PUSH1 0x0 DUP1 PUSH1 0x40 DUP4 DUP6 SUB SLT ISZERO PUSH2 0x403 JUMPI PUSH2 0x402 PUSH2 0x353 JUMP JUMPDEST JUMPDEST PUSH1 0x0 PUSH2 0x411 DUP6 DUP3 DUP7 ADD PUSH2 0x3A1 JUMP JUMPDEST SWAP3 POP POP PUSH1 0x20 PUSH2 0x422 DUP6 DUP3 DUP7 ADD PUSH2 0x3D7 JUMP JUMPDEST SWAP2 POP POP SWAP3 POP SWAP3 SWAP1 POP JUMP JUMPDEST PUSH1 0x0 DUP2 ISZERO ISZERO SWAP1 POP SWAP2 SWAP1 POP JUMP JUMPDEST PUSH2 0x441 DUP2 PUSH2 0x42C JUMP JUMPDEST DUP3 MSTORE POP POP JUMP JUMPDEST PUSH1 0x0 PUSH1 0x20 DUP3 ADD SWAP1 POP PUSH2 0x45C PUSH1 0x0 DUP4 ADD DUP5 PUSH2 0x438 JUMP JUMPDEST SWAP3 SWAP2 POP POP JUMP JUMPDEST PUSH1 0x0 DUP1 PUSH1 0x0 PUSH1 0x60 DUP5 DUP7 SUB SLT ISZERO PUSH2 0x47B JUMPI PUSH2 0x47A PUSH2 0x353 JUMP JUMPDEST JUMPDEST PUSH1 0x0 PUSH2 0x489 DUP7 DUP3 DUP8 ADD PUSH2 0x3A1 JUMP JUMPDEST SWAP4 POP POP PUSH1 0x20 PUSH2 0x49A DUP7 DUP3 DUP8 ADD PUSH2 0x3A1 JUMP JUMPDEST SWAP3 POP POP PUSH1 0x40 PUSH2 0x4AB DUP7 DUP3 DUP8 ADD PUSH2 0x3D7 JUMP JUMPDEST SWAP2 POP POP SWAP3 POP SWAP3 POP SWAP3 JUMP JUMPDEST PUSH1 0x0 PUSH1 0x20 DUP3 DUP5 SUB SLT ISZERO PUSH2 0x4CB JUMPI PUSH2 0x4CA PUSH2 0x353 JUMP JUMPDEST JUMPDEST PUSH1 0x0 PUSH2 0x4D9 DUP5 DUP3 DUP6 ADD PUSH2 0x3A1 JUMP JUMPDEST SWAP2 POP POP SWAP3 SWAP2 POP POP JUMP JUMPDEST PUSH2 0x4EB DUP2 PUSH2 0x3B6 JUMP JUMPDEST DUP3 MSTORE POP POP JUMP JUMPDEST PUSH1 0x0 PUSH1 0x20 DUP3 ADD SWAP1 POP PUSH2 0x506 PUSH1 0x0 DUP4 ADD DUP5 PUSH2 0x4E2 JUMP JUMPDEST SWAP3 SWAP2 POP POP JUMP JUMPDEST PUSH1 0x0 DUP1 PUSH1 0x40 DUP4 DUP6 SUB SLT ISZERO PUSH2 0x523 JUMPI PUSH2 0x522 PUSH2 0x353 JUMP JUMPDEST JUMPDEST PUSH1 0x0 PUSH2 0x531 DUP6 DUP3 DUP7 ADD PUSH2 0x3A1 JUMP JUMPDEST SWAP3 POP POP PUSH1 0x20 PUSH2 0x542 DUP6 DUP3 DUP7 ADD PUSH2 0x3A1 JUMP JUMPDEST SWAP2 POP POP SWAP3 POP SWAP3 SWAP1 POP JUMP JUMPDEST PUSH32 0x4E487B7100000000000000000000000000000000000000000000000000000000 PUSH1 0x0 MSTORE PUSH1 0x11 PUSH1 0x4 MSTORE PUSH1 0x24 PUSH1 0x0 REVERT JUMPDEST PUSH1 0x0 PUSH2 0x586 DUP3 PUSH2 0x3B6 JUMP JUMPDEST SWAP2 POP PUSH2 0x591 DUP4 PUSH2 0x3B6 JUMP JUMPDEST SWAP3 POP DUP3 DUP3 SUB SWAP1 POP DUP2 DUP2 GT ISZERO PUSH2 0x5A9 JUMPI PUSH2 0x5A8 PUSH2 0x54C JUMP JUMPDEST JUMPDEST SWAP3 SWAP2 POP POP JUMP JUMPDEST PUSH1 0x0 PUSH2 0x5BA DUP3 PUSH2 0x3B6 JUMP JUMPDEST SWAP2 POP PUSH2 0x5C5 DUP4 PUSH2 0x3B6 JUMP JUMPDEST SWAP3 POP DUP3 DUP3 ADD SWAP1 POP DUP1 DUP3 GT ISZERO PUSH2 0x5DD JUMPI PUSH2 0x5DC PUSH2 0x54C JUMP JUMPDEST JUMPDEST SWAP3 SWAP2 POP POP JUMP INVALID LOG2 PUSH5 0x6970667358 0x22 SLT KECCAK256 LOG0 DELEGATECALL SWAP15 0xE2 PUSH31 0xB66A522AE2070FBBFCE01368A8B5A66C6FDEC13E51F5DAF93E5C9A64736F6C PUSH4 0x43000812 STOP CALLER "
		},
		"gasEstimates": {
			"creation": {
				"codeDepositCost": "312200",
				"executionCost": "22455",
				"totalCost": "334655"
			},
			"external": {
				"allowance(address,address)": "infinite",
				"approve(address,uint256)": "800",
				"balanceOf(address)": "2863",
				"totalsupply()": "373",
				"transfer(address,uint256)": "infinite",
				"transferFrom(address,address,uint256)": "infinite"
			}
		},
		"methodIdentifiers": {
			"allowance(address,address)": "dd62ed3e",
			"approve(address,uint256)": "095ea7b3",
			"balanceOf(address)": "70a08231",
			"totalsupply()": "72dd529b",
			"transfer(address,uint256)": "a9059cbb",
			"transferFrom(address,address,uint256)": "23b872dd"
		}
	},
	"abi": [
		{
			"anonymous": false,
			"inputs": [
				{
					"indexed": true,
					"internalType": "address",
					"name": "_owner",
					"type": "address"
				},
				{
					"indexed": true,
					"internalType": "address",
					"name": "_spender",
					"type": "address"
				},
				{
					"indexed": false,
					"internalType": "uint256",
					"name": "_value",
					"type": "uint256"
				}
			],
			"name": "Approval",
			"type": "event"
		},
		{
			"anonymous": false,
			"inputs": [
				{
					"indexed": true,
					"internalType": "address",
					"name": "_from",
					"type": "address"
				},
				{
					"indexed": true,
					"internalType": "address",
					"name": "_to",
					"type": "address"
				},
				{
					"indexed": false,
					"internalType": "uint256",
					"name": "_value",
					"type": "uint256"
				}
			],
			"name": "Transfer",
			"type": "event"
		},
		{
			"inputs": [
				{
					"internalType": "address",
					"name": "_owner",
					"type": "address"
				},
				{
					"internalType": "address",
					"name": "_spender",
					"type": "address"
				}
			],
			"name": "allowance",
			"outputs": [
				{
					"internalType": "uint256",
					"name": "remaining",
					"type": "uint256"
				}
			],
			"stateMutability": "view",
			"type": "function"
		},
		{
			"inputs": [
				{
					"internalType": "address",
					"name": "_spender",
					"type": "address"
				},
				{
					"internalType": "uint256",
					"name": "_value",
					"type": "uint256"
				}
			],
			"name": "approve",
			"outputs": [
				{
					"internalType": "bool",
					"name": "success",
					"type": "bool"
				}
			],
			"stateMutability": "nonpayable",
			"type": "function"
		},
		{
			"inputs": [
				{
					"internalType": "address",
					"name": "_owner",
					"type": "address"
				}
			],
			"name": "balanceOf",
			"outputs": [
				{
					"internalType": "uint256",
					"name": "balance",
					"type": "uint256"
				}
			],
			"stateMutability": "view",
			"type": "function"
		},
		{
			"inputs": [],
			"name": "totalsupply",
			"outputs": [
				{
					"internalType": "uint256",
					"name": "supply",
					"type": "uint256"
				}
			],
			"stateMutability": "view",
			"type": "function"
		},
		{
			"inputs": [
				{
					"internalType": "address",
					"name": "_to",
					"type": "address"
				},
				{
					"internalType": "uint256",
					"name": "_value",
					"type": "uint256"
				}
			],
			"name": "transfer",
			"outputs": [
				{
					"internalType": "bool",
					"name": "success",
					"type": "bool"
				}
			],
			"stateMutability": "nonpayable",
			"type": "function"
		},
		{
			"inputs": [
				{
					"internalType": "address",
					"name": "_from",
					"type": "address"
				},
				{
					"internalType": "address",
					"name": "_to",
					"type": "address"
				},
				{
					"internalType": "uint256",
					"name": "_value",
					"type": "uint256"
				}
			],
			"name": "transferFrom",
			"outputs": [
				{
					"internalType": "bool",
					"name": "success",
					"type": "bool"
				}
			],
			"stateMutability": "nonpayable",
			"type": "function"
		}
	]
}